:020000040000FA
:0600000002133502082D79
:03002B000210E8D8
:03003300020BA815
:03004300020FB6F3
:030053000207623F
:03006B00020B6025
:03007B00020B88ED
:100083000207C1010000000000F8FF07FFFF0000A6
:100093000504000000030001FFFFFFFF0014102709
:1000A30000000020FD000206FFFF1E851C0000006B
:1000B3000000000000000000000000FF0500050034
:1000C3000104010C000201208906CB870204010C04
:1000D3000002000000011E89030401070102000061
:1000E3000001248901040000E819000000E803006E
:1000F30000FFFF391A0188130000E80300006400C1
:100103006400B801A0BB0D00A0BB0D0002020207F2
:100113000401051E02051E020A0A01010808010363
:10012300B80B02803E0102FEFFE8030A050001FF4F
:10013300FF020A011401E00100B0423BAAB83F8C60
:10014300906339AA0CA33A00941E3C8042633DCFCE
:10015300FE753E1572313FF304353F8096184B0010
:100163000080BF2292D43EDD9B2A3F04000040FF63
:10017300FF7F7FFFFF7FFF010080341872313F0252
:10018300000000050301010F030003000300030047
:100193000300030003000300030005000A0014002A
:1001A30028004F009E0000003E2E00000000742D2A
:1001B30000000000FF000000FF001213546046120D
:1001C3001345603DE9687008F618F618F618F6222C
:1001D300748067F71201F1090909748067F7221225
:1001E3001345601D1213547005191919801A121240
:1001F30021701F121235C37003E6673319191940B2
:10020300071818182208080874FFF618F618F618C5
:10021300F62212123560171213E2702192F01213B4
:10022300EB7019501720F014080808090909E7F6BC
:100233001819E7F61819E7F61819E7F6221213EB5F
:1002430060E6E869701F0808E62480F608E436F6DD
:1002530018547FB47F0CE654806007F6E418F61850
:10026300F622181822E9C6CC08C6CD08C6CE08C6A1
:10027300CFC0E0E8C0E0EAC0E0EBC0E009E9F8097C
:10028300E7FA09E7FBE6F918E6F8C3EC98ED99EE0F
:100293009AEBC2E7F5F0EFC2E795F0500E600CEB76
:1002A300CFFBEACEFAE9CDF9E8CCF8EAA2E7D2E748
:1002B300FAEB33FB13F5F0EEA2E7D2E7FEEF33FFE1
:1002C300C5F013A2E730E601B313C5F0C3C0E0C025
:1002D300F07F00C39BFB605E9418600F401D1460A9
:1002E3001AD0E023F9D0E0F80203C38AF0E94860AA
:1002F30003D2F0E4AFF0FAF9F8803BEB30E40D8978
:10030300F0EA6003D2F0E4AFF0F9CAF8EB30E30DA2
:1003130088F0EF6002D2F0AFF0E4CAC9F8EB5407FB
:100323006014FBC3EA13FAE913F9E813F8EF135067
:1003330002D2E0FFDBEDD0E0C0E030E739C3E49F59
:10034300FFF5F0EC98FC42F0ED99FD42F0EE9AFED9
:1003530042F0D0E0F9D0E0F8E5F0607AE923F9EE75
:1003630020E742D8028067C3EF33FFEC33FCED3361
:10037300FDEE33FE80EAEC28FCED39FDEE3AFED0CB
:10038300E023F9D0E0F84002801BC3EE13FEED1327
:10039300FDEC13FCEF135002D2E0FF08B800067F18
:1003A3007F74FF802EEF3350178CF020F002601023
:1003B3000CBC000C0DBD00080EBE000408E860DF95
:1003C300E933E813FFEE2313FE4F4D4C8008E95445
:1003D30080FFE4FEFDFCEE33EF33F47004FCFD7E9E
:1003E30080D0E0FBD0E0FAD0E0F8D0E0CFC618CE62
:1003F300C618CDC618CCC6F92212134570041818B6
:100403001822121354700D74FFF61819F61819F602
:100413001819F622E7548066F61213EB700F1213C5
:10042300E270F014F608F608F608F680D11213E22B
:10043300700CF608F608768008E6447F80EC12120A
:1004430038700C12122460BFE65480F6E480BB12AD
:100453001224700519191980A5E869700C763F18E4
:10046300768018F618F6E8F922E6CDC0E018ECC05D
:10047300E0E633CD33CDD313F6E719FCE71919338F
:10048300CC33C3947F400ECD9D502408E65480F6B0
:10049300E418F6800FF4043D14501408E6447FF684
:1004A300187680E418F618F6D0E0FCD0E0FD22CCF4
:1004B300D313CCFD18E4C6CBC0E018E4C6CAC0E031
:1004C3000808ED08C633E613F618E433C675F003DF
:1004D300C3CA97CA09CB97CB199C40047D08802EC9
:1004E300BD00030205A516B6FF050606081618C3C8
:1004F300CA33CACB33CB33CA27CA09CB37CB193C50
:10050300C37D08803E187D0820E75CC633C6CA3326
:10051300CACB33CB33DDF1D5F0EB30E77BCA97CAD7
:1005230009CB974ACB199C406F4B7025E620E021FD
:100533008066187D08C3CA97CA09CB97CB199CD389
:10054300C633C6CA33CACB33CB3350C9DDE7D5F084
:10055300E1D3E4C636C608C636C608C636C608C6DC
:1005630036C61818188031C3CA97CA09CB97CB1956
:100573009CB34097C633C6CA33CACB33CB33DD34BF
:10058300D5F02EC6A2E0C640C8CA27CA09CB371980
:100593004A70BECB3CB480B90808E63308E6336042
:1005A3001F181818D0E0FAD0E0FBD0E0FCD0E0FD33
:1005B30022187D08CA27CA09CB37CB193CD38080C0
:1005C30013F618E4B67F11F618B6FF0EF618C60434
:1005D30070D20808768080CAF618F618F680C5002F
:1005E300121345604F1213546012E7548066F612DB
:1005F300122170111213E2703B090909F4F618F67F
:1006030018F618F62212123570151213EB080808A3
:1006130060EAE6447FF618768018E4F618F62212AC
:1006230013EB60161213E27012E4F608F608F608EC
:10063300E65480F609090918181822EAC0E0EBC04D
:10064300E0ECC0E0EDC0E0E687F0A4FBACF008E628
:1006530087F0A42CFCE435F0FA1809E687F0A42C03
:100663004B60027401CA35F0FCE433FB09E687F002
:10067300D2F7A42CCB35F0FC1908E687F0A42BCCD9
:1006830035F0FBE433FD0819E687F0D2E7A42C4AE2
:10069300CB35F0CD3400FC09E687F0D2E7A42DCCAE
:1006A30035F0FDE433FA0918E687F0D2F7A42CCD30
:1006B30035F0CA3400FC08E687F0D2E7D2F7A42A63
:1006C300CC35F07A7E20E70B0ACB33CBCD33CDCCC0
:1006D30033CC33CB3350147004ED30E00ED2F1E45D
:1006E300CD3DCDCC3CCC3B5005DA05C2F1EB547F7C
:1006F300C63308E63392F0FBE73309E733C39A5076
:100703002D2B70190C0D4C4D70151806E608C333CC
:10071300700D20F10AA2F013F6E418800B4024E4D4
:10072300F630F002768018F618F618F68024D33BDC
:1007330014501074FFA2F013F6187680E418F6181C
:10074300F6800FA2F013F618E63303F618ECF6184A
:10075300EDF6D0E0FDD0E0FCD0E0FBD0E0FA22C023
:10076300E074F1120BC8A2AFE433F509D2AF85A749
:1007730008AFA1EF5508FE74105E600612173975B5
:10078300A1EF74085E600812173F75A1F78024EF8C
:10079300A2E092F0E508A2E082F05017906198E0A1
:1007A300F8900A64E0C398A2D265D0335002E8F00F
:1007B30075A1FEE509A2E092AF7F02020C27C0E01B
:1007C30074F2120BC8A2AFE433FED2AF9061A4E07F
:1007D300F8759B00E59158540860087591F7121756
:1007E3008D8023E59158541060087591EF1217938B
:1007F3008014E591A2E092F0E8A2E082F05007E0D5
:10080300C2E0F01218DD9061A3E0F8E5E958540462
:10081300600E1218B375E9FB906193E0A2E640F213
:10082300EEA2E092AF7F01020C27C0E074F2120B3C
:10083300C8A2AFE433FED2AF9061A5E0F8E5BF589C
:100843005404600675BFFB1218F580D41208A43057
:10085300F0431208E9803E8A088B098C0A8D0B78D5
:10086300081208A420F01430E72B74FFFCFBFA7481
:100873007F8022E4FCFBFA7480801AB48008BC00F9
:10088300F2BB00EF800F50EBF9E4C39AFAE49BFB51
:10089300E49CFCE499C6CC18C6CB18C6CA18C6F9A2
:1008A30022E4C9C608CAC608CBC6D3330308CCC6DC
:1008B3003392F0C3947F402E94184019C9B90704AA
:1008C300CACBCC225025C309CA33CACB33CBCC33D2
:1008D300CC33D9F422F4600DC9CCC313CB13CBCAE8
:1008E30013CAD9F6CC22E4FCFBFA2214FCFBFA224D
:1008F300C3E498F8E499F91209348026C3E49AFA18
:10090300E49BFBE920E7E9120934E498F8E499F958
:1009130022C3E498F8E499F9120934E498F8E499C5
:10092300F9C3E49AFAE49BFB22EB20E7CFE920E743
:10093300E0B90010BB0008E88AF084F8AAF022E4CA
:10094300FBC8FA22EB70227B10C833C8C933C93302
:100953005007C39AC3DBF280069A50012ADBEAC828
:1009630033F4C8C933F4C9FA2275F008E4C833C8AC
:10097300C933C933C99AC99B5004C92AC93BD5F0A5
:10098300ECFBC833F4C8E4C9FA22080808EAC0E05B
:10099300EBC0E086F0E7A4FA180986F0E7A42AFA88
:1009A300180986F0E7A42AFA180986F0E7A42AFAB8
:1009B3001986F0E7A4FBE5F02AFA190886F0E7A404
:1009C3002BFBE5F03AFA190886F0E7A42BFBE5F0D8
:1009D3003AFA18180986F0E7A4C5F02BFBE43AFAB3
:1009E3001908E7C5F0C6A426F6E5F03BFBE43AFA9E
:1009F3001886F0E7A4F6E5F00826F6E43B08F6E4EB
:100A03003A08F6D0E0FBD0E0FA22080808E630E71F
:100A1300111211E5120A25080808C64480C61818E1
:100A23001822181818E9799EC608CAC608CBC60842
:100A3300CCC6C370207996CACBCC7019798ECBCC37
:100A430070137986CC700EF9802ACA33CACB33CBA4
:100A5300CC33CC331930E7F2CCCBCA335014700407
:100A6300EA30E00DE4CA3ACACB3BCBCC3CCC5002D3
:100A730009C3E913C6CC182313C6CB18C6CA18C6B4
:100A8300F922E4CFC0E0E4CEC0E0E4CDC0E0E4CCA2
:100A9300C0E075F020E626F608E633F608E633F6FE
:100AA30008E633F6181818EC33FCED33FDEE33FE8D
:100AB300EF33FFC3EC9709ED9709EE9709EF971909
:100AC3001919400FFFEC97FC09ED97FD09EE97FE0E
:100AD300191906D5F0BFECF709EDF709EEF709EFA1
:100AE300F7191919D0E0FCD0E0FDD0E0FED0E0FF0B
:100AF300222521C582C0E0E52234FFC583C0E0E59D
:100B030021C3958224F810AF088583228582218032
:100B130008858322858221D2AFCEF0A3E520F0A3FE
:100B23007808E608F0A3DEFAEFF0A3E58124FAF8EB
:100B3300E608F0A3E608F0A3E608F0A30808E60831
:100B4300F0A3E608F0A315811581D0E0FED0E0F80C
:100B5300158115811581E8C0E0EEC0E022C0E07484
:100B6300F2120BC8A2AFE433FED2AFE589A2E45080
:100B730005790112166D758900C2C5EEA2E092AF28
:100B83007F01020C27C0E074F2120BC8A2AFE4335A
:100B9300FED2AFE58AA2E35005790212166D758A7B
:100BA30000C2EB80D6C0E074F2120BC8A2AFE433EC
:100BB300FED2AFE58BA2E05005790412166D758B5A
:100BC30000C2E880B6C0D02521C582C0E0E522344A
:100BD300FFC583C0E0E521C3958224F310AF0885E8
:100BE30083228582218008858322858221D2AFC812
:100BF300F0A3E9F0A3EAF0A3EBF0A37908E709F087
:100C0300A3D8FAECF0A3EDF0A3EEF0A3EFF0A3D09A
:100C1300E0F0A3D0E0F0A3D0E0F0A3E520F0A3E55B
:100C2300F0F0A322852283852182E0C0E0A3E0F9CE
:100C3300A3E0FAA3E0FBA37808E0F608A3DFFAE059
:100C4300FCA3E0FDA3E0FEA3E0FFA3E0C0E0A3E07C
:100C5300C0E0A3E0F5D0A3E0F520A3E0A3F5F010F6
:100C6300AF0885832285822180088583228582219E
:100C7300D2AFD082D083D0E0F8D0E0321213CDB916
:100C83000003020CBEE490050178D679188002F0C7
:100C9300A3D8FCD9FA7AD67B1C90008678387902DF
:100CA3008015E493A3AD82AE838A828B83F0A3AADB
:100CB30082AB838D828E83D8E9D9E77582A0758351
:100CC300E774041210797582BF75832A74001210B9
:100CD3007975F0108E238F248582288583278521BB
:100CE30082852283E0CEA3E0CF852882852783EB0C
:100CF300C9EAC8EDCBECCAC3E833C8E933C9EA3360
:100D0300CAEB33CBC3EA9EF526EB9FF525B350041C
:100D1300AB25AA26EC33CCED33CDD5F0DAAE23AF39
:100D23002422121345601C12135460171213EB7024
:100D3300071213E27001D322C0D01213E27006D05F
:100D4300D0B322C32233D0D0501430E0F6C3E79699
:100D53000809E7960809E7960809E796B32220E011
:100D6300D5E6970809E6970809E6970809E697B3D1
:100D730022121345601B12135460161213EB7007F3
:100D83001213E2600CB322C0D01213E27005D0D06C
:100D930022C32233D0D0501330E0EBC3E7960809C7
:100DA300E7960809E7960809E7962220E0E4E69724
:100DB3000809E6970809E6970809E69722D083D041
:100DC30082ECC0E0EDC0E0E493A3FCE493A3FDED6B
:100DD3004C600D120E98EC24FFFCED34FFFD80EF08
:100DE300E493A3FCE493A3FDED4C600D120F61ECBF
:100DF30024FFFCED34FFFD80EFD0E0FDD0E0FCE408
:100E030093A3C0E0E493C0E022852283852182E09E
:100E1300A3FEE0A3F5207808E0A3F608DFFAE0A339
:100E2300FFE0A3C0E0E0A3C0E0E0A3C0E0E0A3C014
:100E3300E0E0A3C0E010AF0885822185832280080B
:100E4300858221858322D2AFD083D08202107FD0C6
:100E530083D082E9C0E0E493A3C386F0C5F095F0A4
:100E6300F908E493A386F0C5F095F0700BE493A31F
:100E7300C3994005E9048002A3E475F002A4258226
:100E8300F582E5F03583F583D0E0F9E493A3C0E080
:100E9300E493C0E022C0E0C3E49396087401939600
:100EA30018400FE493667008087401936618700085
:100EB3007019A3A3C3E49396087401939618A3A38C
:100EC300400DD0E0D0E0D0E0020DFCA3A3A3A3A388
:100ED300A3D0E0227404800474028000CCC0E0ED4F
:100EE300C0E0E521C39CCCAD2250011D10AF068CA0
:100EF300218D2280068C218D22D2AF120FFBD0E0F0
:100F0300FDD0E0FC2274028000CCC0E0EDC0E0E53F
:100F130021C39CCCAD2250011D10AF068C218D2224
:100F230080068C218D22D2AF120FD9D0E0FDD0E004
:100F3300FC22121345602512135460201213EB7028
:100F4300030213E2080808E76670101819E76670D1
:100F53000A1819E76670041819E76622F422C0E03C
:100F6300C0F088F0E4936670080874019366187003
:100F730000A8F0A3A3700BD0F0D0E0D0E0D0E00243
:100F83000DFCA3A3D0F0D0E022D083D082CCC0E06C
:100F9300E493A3600612103B1470FAE493A3600673
:100FA30012117B1470FAD0E0FCE493A3C0E0E49345
:100FB300C0E022C0E074F2120BC8A2AFE433FED249
:100FC300AFC2C0E5D1A2E450031216B5EEA2E0927F
:100FD300AF7F01020C27CAC0E0E493A3C582CCC54E
:100FE30082C583CDC583F0A3C582CCC582C583CD1D
:100FF300C583DAE5D0E0CA22CAC0E0E0A3C582CC4B
:10100300C582C583CDC583F0A3C582CCC582C58304
:10101300CDC583DAE6D0E0CA227009080808226049
:1010230016181818C6C333C608C633C608C633C64F
:1010330008C633C6D5E0EA22C0E0E493A3D39C50AC
:1010430010E493A3C39C400AD0E0D0E0D0E0020FA9
:10105300A9A3A3A3D0E022C008C3E096F50808A380
:10106300E096420808A3E096420808A3E0964508E4
:101073007001D3D00822C09FF59FE473D09F22D084
:1010830083D082C09FE493C0E0740193C0E07402F4
:1010930093F59F222521F58210AF08F521400C1509
:1010A300228008F52140021522D2AF8522832274C3
:1010B30004800A74038006740280027401C0E0F4A1
:1010C30004121097D0E01213902200C0D0252110F3
:1010D300AF08F521500C05228008F52150020522A6
:1010E300D2AFD0D022C0E0C0D0E8C0E0A8A8D2AF31
:1010F300C2C7E8A2E792AFD0E0F8D0D0D0E032BBCD
:101103000102E722C082C08389828A83BB0003E095
:101113008002E493D083D082226016080808C6C3F5
:1011230013C618C613C618C613C618C613C6D5E009
:10113300EA22C3E0C696F608A3E0C696F608A3E043
:10114300C696F608A3E0C696F6222521F8E43522D2
:10115300F9222521FAE43522FB222521FCE435225C
:10116300FD22252110AF08F521400C15228008F53A
:101173002140021522D2AF22C0E0E493A36C700990
:10118300D0E0D0E0D0E0020FA9A3A3D0E022C3E7D0
:10119300960809E7960809E7960809E796A2D26533
:1011A300D03322C3E09608A3E09608A3E09608A3F1
:1011B300E096A2D265D03322E76670100809E7668D
:1011C300700A0809E76670040809E76622E066709A
:1011D3001008A3E066700A08A3E066700408A3E0A1
:1011E3006622181818E4C396F608E496F608E496FF
:1011F300F608E496F622C3E096F008A3E096F0081A
:10120300A3E096F008A3E096F022C3E697F6080958
:10121300E697F60809E697F60809E697F6221818FE
:1012230018E60846087009E626087005E633F42236
:101233000822191919E70947097009E727097005F1
:10124300E733F4220922C3E49396087401939608C2
:1012530074029396087403939622E627F60809E628
:1012630037F60809E637F60809E637F6227004224E
:10127300600D18C6C333C608C633C6D5E0F41822BA
:10128300E657F60809E657F60809E657F60809E6A9
:1012930057F622E026F608A3E036F608A3E036F672
:1012A30008A3E036F622E026F008A3E036F008A310
:1012B300E036F008A3E036F022E056F008A3E0564B
:1012C300F008A3E056F008A3E056F022E647F6083C
:1012D30009E647F60809E647F60809E647F622E075
:1012E30056F608A3E056F608A3E056F608A3E05620
:1012F300F622600D08C6A2E713C618C613C6D5E0CA
:10130300F322C6F4C608C6F4C608C6F4C608C6F473
:10131300C622C3E09608A3E09608A3E09608A3E0DC
:101323009622C3E7960809E7960809E7960809E7AE
:10133300962275D00075813F752101752205000243
:101343000C7FE6084608C3134608336002E633F40D
:1013530022E7094709C3134709336002E733F4223D
:10136300600C08C6C313C618C613C6D5E0F422E63C
:10137300F008A3E6F008A3E6F008A3E6F022E0F6FF
:1013830008A3E0F608A3E0F608A3E0F622CAC0E04B
:10139300E6F0A308DAFAD0E0FA22E0FAA3E0FBA32E
:1013A300E0FCA3E0FD22EAF0A3EBF0A3ECF0A3ED55
:1013B300F022E0F8A3E0F9A3E0FAA3E0FB22E8F0CF
:1013C300A3E9F0A3EAF0A3EBF022E5C754F8440144
:1013D300F5C77901222521F582E43522F58322E739
:1013E3002719471947194722E6261846184618466B
:1013F30022C2AF75D69F02000022121082F2CE02E3
:101403001210823FCF02121082C7CF0212108282C3
:10141300D002121082E5D00212108229D1021210DA
:1014230082C3D10212108241D20212108274D202FC
:1014330012108282D302121082A2D302121082F6F9
:10144300D302121082DED402121082E0D6021210EE
:101453008282D702121082D2D90212108256DA0285
:101463001210825BDD021210828FDF02121082C71C
:10147300DF0212108226E10212108230E102121002
:10148300827FE10212108251E30212108288E90482
:10149300121082BCE9041210820FEA0412108212A5
:1014A300EB041210823FE503121082BBE503121016
:1014B30082EEE5031210821CE6031210825AE60341
:1014C30012108295E803121082B4E803121082F915
:1014D300E8031210828FE903121082DBE903121072
:1014E300826FEA0312108247EB03121082A3EB030D
:1014F30012108201EC031210827EEC03121082B4EC
:10150300EC03121082FFEC0312108225ED0312107C
:1015130082B5ED031210824CEE0312108298EE0393
:10152300121082C9EE0312108200EF03121082869A
:10153300F00312108250F10312108220F2031210F2
:10154300822193041210822B930412108297930426
:10155300121082A29304121082BD9304121082F21D
:1015630093041210821A94041210824294041210EB
:10157300827194041210826E9504121082BB95043A
:10158300121082D09504121082629604121082B156
:101593009604121082DD960412108202980412102F
:1015A30082CF99041210825DD00412108289D00474
:1015B300121082A9D004121082D0D0041210821704
:1015C300D20412108238D204121082F6D2041210FE
:1015D300828DD304121082E6F20412108229F304DE
:1015E300121082A6F304121082C8F3041210826D43
:1015F300FD0112108234FE0112108246FE01121008
:1016030082C1FE01121082F2F60412108203F70463
:10161300121082A1F704121082ACF704121082C4D4
:10162300F704121082F77F0012108229FC041210B3
:1016330082D3F704121082E3F704121082FBF7043B
:1016430012108263F804121082F0F40412108273F1
:10165300F504121082D9F50412108260EF041210FF
:1016630082E9EF04121082FEEF0412108250F0049C
:10167300121082ECCC04121082FACC041210827382
:10168300CD041210824BCE041210820ED00412101D
:101693008284FB0412108263B404121082CFB40458
:1016A30012108287B50412108273B604121082E3FB
:1016B300B7041210824AB8041210829EB8041210A2
:1016C30082A7B804121082B7B804121082CDB804EE
:1016D300121082F6AA0412108222AB041210826640
:1016E300AD04121082A6AD04121082E6AD041210EE
:1016F30082FAAD0412108213AE0412108205AF04F5
:10170300121082AAAF04121082BEAF041210826CB0
:10171300EB0412108290EB04121082A9EB04121056
:1017230082DBEB041210820BEC0412108238EC04FF
:101733001210829AEC04121082A9EC04121082B3E4
:10174300EC04121082C0EC04121082AAE2041210FC
:1017530082CAE20412108209E30412108224E30411
:1017630012108243E304121082A9E304121082B21E
:10177300E3041210820FE4041210821EE404121018
:101783008242E40412108203E50412108210E5047D
:1017930012108221E504121082F0F804121082382C
:1017A300F90412108264F90412108214B0041210A6
:1017B300826EB1041210827CB1041210828FB104C4
:1017C300121082A4B104121082B9B104121082CC97
:1017D300B10412108240B204121082A5B204121096
:1017E3008247B3041210820BB4041210821BB40498
:1017F3001210822AB4041210825EFF021210828237
:10180300FF02121082AAFF02121082D2FF021210EC
:10181300824FE50412108276E50412108294E504E7
:1018230012108207E604121082D7DF04121082F02E
:10183300DF04121082FCDF0412108210E004121085
:10184300822EE00412108238E00412108242E00477
:1018530012108255E004121082DBE0041210825051
:10186300E1041210827FE104121082CDE104121010
:10187300821CE20412108237E20412108241E20455
:1018830012108252E20412108295E204121082F5C1
:10189300FA04121082C08904121082EA8904121019
:1018A30082078A041210821A8A04121082308A0470
:1018B3001210828E8A04121082C68A04121082BA0F
:1018C3008E04121082FF8F041210823290041210C1
:1018D30082959004121082F591041210821D9204D5
:1018E30012108232920412108242920412108286E3
:1018F3009204121082E19204121082F192041210E7
:101903008298F004121082B2F004121082DAF0040A
:10191300121082F3F00412108217F10412108235B0
:10192300F1041210824CF1041210827AF1041210A5
:101933008295F10412108240FB0412108267C904DD
:1019430012108277C9041210827CCA04121082AE6C
:10195300CA04121082DECA0412108201CB041210D0
:101963008218CB0412108252CB04121082B7CB041C
:10197300121082F9CB0412108238CC04121082693F
:10198300CC0412108294CC04121082CAEC041210FC
:1019930082DCEC04121082F0ED04121082F3ED04E9
:1019A300121082ECF30412108222F4041210823813
:1019B300F4041210827AF4041210828AF4041210CE
:1019C30082CEF404121082D8F40412108206A40406
:1019D30012108210A40412108253A404121082B8AD
:1019E300A404121082D5A40412108277A504121045
:1019F3008280A504121082C5A504121082EEA504EC
:101A0300121082FBA50412108276A6041210820122
:101A1300A70412108246A70412108291A704121081
:101A230082F6A70412108219A8041210828AA8044D
:101A3300121082DFA8041210821AA9041210824F16
:101A4300A90412108261A90412108273A90412104E
:101A53008292A9041210829BA90412108249AA043B
:101A63001210828CAA04121082CAAA041210823D98
:101A7300FA0412108220EE04121082B6FD03121033
:101A830082ECFD0312108234FE031210828DFF03D9
:101A930012108251C1031210826AC203121082A46F
:101AA300C20312108252C40312108280C4031210A4
:101AB30082E6C60312108226C703121082CAC80325
:101AC3001210825AC903121082AEC9031210825037
:101AD300CA0312108292CA03121082D4CA031210CC
:101AE3008231CC031210827FCD03121082B6CF0352
:101AF300121082E4CF031210820BD003121082144F
:101B0300D0031210826BD00312108206D10312107D
:101B1300820ED40312108295D40312108213FC0494
:101B230012108278C1041210828EC1041210823204
:101B3300C20412108271C2041210828EC2041210E7
:101B430082BFC2041210820CC3041210823FC3046A
:101B53001210827AC3041210826FC504121082F22B
:101B6300F50412108251F6041210828FF60412103B
:101B730082D0F60412108295FA04121082B9A502DB
:101B8300121082C5A50212108227A60212108231FA
:101B9300A602121082C2A602121082FEA602121020
:101BA30082F8A70212108244A802121082D2A8025D
:101BB30012108208A90212108286A9021210823A18
:101BC300AB0212108265AD02121082A3AE02121094
:101BD30082DFB00212108243B202121082FAB20202
:101BE300121082E6B702121082DAB8021210827E55
:101BF300B902121082A3B9021210823ABA02121069
:101C03008250BA02121082C7BA02121082E6BA02D6
:101C13001210820FBB02121082A5BC02121082C6E0
:101C2300BC021210826CBD02121082B3BD021210EC
:101C33008225BE02121082B3BE021210820FBF02AF
:101C430012108285BF0212108206C1021210825F37
:101C5300C302121082E6C30212108210C4021210D1
:101C630082729C04121082CF9D041210820F9F0473
:101C73001210823CA00412108260A1041210827719
:101C8300A30412108299A304121082ACA3041210AD
:101C930082C9A304121082F8FB04121082BCD3047D
:101CA30012108276D404121082DCD40412108284BF
:101CB300D5041210829CAC03121082CBAC03121019
:101CC3008243AD0312108246AE03121082A2AE030A
:101CD30012108219B00312108235B00312108287DA
:101CE300B003121082C5B003121082D8B0031210D1
:101CF300822AB103121082E5B1031210825FB2038C
:101D030012108289B203121082C1B20312108233FD
:101D1300B4031210820CB50312108255B6031210CD
:101D23008228B703121082B0B703121082F8B703E8
:101D330012108212B80312108259B803121082795A
:101D4300B8031210820FB90312108295B90312104F
:101D530082EFB90312108233BA03121082C4BC0398
:101D6300121082E7BD0312108223BE0312108215E4
:101D7300BF031210823DBF0312108240BF03121033
:101D8300824ABF031210825DBF03121082DCBF03BD
:101D930012108212C0031210823EC0031210826519
:101DA300C00312108289C003121082FAC0031210FA
:101DB3008208C1031210823BC10312108267F90427
:101DC30012108273F904121082A7F904121082FA16
:101DD3007F00121082829603121082A596031210BE
:101DE30082EB97031210823498031210829C98039B
:101DF300121082FA9803121082FD9803121082497E
:101E03009903121082BC9903121082449A03121090
:101E130082479A03121082D19A03121082129B03F3
:101E2300121082F59E031210828EA003121082EC10
:101E3300A00312108267A403121082A0A50312103C
:101E4300820FA703121082ADA703121082B8A80352
:101E530012108209AB03121082E4D4031210828E93
:101E6300D503121082F4D5031210820DD60312107B
:101E730082968604121082DFD6031210822FD703B4
:101E830012108296D7031210820FD9031210823DCB
:101E9300DA03121082C2DA03121082C8DC031210B2
:101EA3008271DD031210821ADE03121082DCDE035C
:101EB30012108285E0031210822DE203121082DEDB
:101EC300E203121082F6E303121082E6E402121018
:101ED300825AE502121082A2E502121082E6E5029E
:101EE3001210822FE60212108279E602121082B1DA
:101EF300E6021210822FE702121082C5CE021210E0
:101F030082DDE8021210826EE902121082C6E90233
:101F1300121082E0E90212108208EA0212108260B3
:101F2300EA02121082CFEC02121082EEEC021210BF
:101F330082D2ED0212108202EF021210827FEF02B0
:101F4300121082CEEF021210822FF002121082D5ED
:101F5300F002121082A3F202121082A3F3021210F3
:101F63008221F50212108202F70212108268F9022E
:101F730012108218FB02121082E8FB021210825622
:101F8300FC021210826DFC0212108265FD02121017
:101F93008255FE02121082C0FE0212108220DA0461
:101FA3001210826CDB0412108229DC041210828D61
:101FB300DC04121082FAD60412108215D704121010
:101FC3008259D7041210827FD704121082A5D70436
:101FD300121082BDD70412108220D8041210823549
:101FE300D80412108258D90412108261D904121035
:101FF300826AD90412108273D9041210827DD90423
:10200300121082D7B804121082D6BC04121082DBDD
:10201300BC04121082DDBC0412108215E8041210F5
:1020230082DAFB0412108201DD04121082C8F1046B
:10203300121082DCF904121082E87D00121082D2A1
:10204300FF011210827CC50412108244BD041210D9
:1020530082BCFB041210826DF80412108297F804FC
:102063001210820080021210823380021210829FAB
:1020730080021210823A8102121082D7810212105A
:10208300821C82021210823E820212108257820246
:102093001210827D82021210829F8202121082DD50
:1020A30082021210822183021210824383021210D1
:1020B30082A583021210826C84021210822385028D
:1020C300121082958502121082608602121082B36A
:1020D300860212108219870212108253870212108D
:1020E30082A587021210821388021210827E880250
:1020F30012108281880212108202890212108299C0
:102103008902121082198A02121082388A0212106E
:10211300829C8B02121082A98B02121082B58C0250
:10212300121082C28C02121082CB8C02121082A374
:102133008E02121082BD8F0212108236900212108C
:1021430082A89002121082CA90021210825E91023B
:102153001210823293021210820997021210821D0A
:1021630097021210822D97021210823797021210D3
:1021730082409702121082499702121082539702EB
:10218300121082809702121082A99702121082B451
:102193009702121082D89702121082FC9702121033
:1021A30082669802121082AC9802121082C99802B9
:1021B3001210824699021210827D9902121082BC7B
:1021C3009902121082099A021210828F9A02121037
:1021D300825D9C02121082E09C02121082C49D0256
:1021E3001210822BA00212108284A002121082CE3F
:1021F300A00212108229A2021210825EA202121001
:1022030082B0A20212108265A30212108214A402E9
:1022130012108251A402121082E6A40212108252FA
:10222300A5021210822B31001210825D31001210B0
:10223300828B31001210826133001210824134000C
:10224300121082993400121082D4350012108220A9
:1022530036001210824939001210823C3C001210E1
:10226300828C3D00121082223E001210822E3E000C
:10227300121082603E00121082E33F00121082941B
:1022830041001210822842001210826B4200121089
:1022930082E9420012108206430012108236430084
:1022A3001210826B43001210823B4400121082E42E
:1022B30044001210826A47001210828A48001210EA
:1022C30082754900121082F749001210822B4E00CA
:1022D300121082684E00121082C04E00121082F358
:1022E3004E001210825D4F00121082934F001210A5
:1022F300821E50001210827650001210824D51003F
:10230300121082065200121082A15200121082A9EA
:102313005500121082C55600121082685A0012101E
:10232300825C5B001210825F5B001210828E5B0086
:10233300121082945D001210826D5E00121082B042
:102343005E001210820660001210824560001210B7
:1023530082CE6000121082026100121082C76100F7
:10236300121082DF630012108250640012108290F8
:1023730064001210821E6500121082406600121063
:10238300820267001210820969001210822169001B
:102393001210823569001210826D69001210829B3F
:1023A30069001210821A6B001210823F6C00121027
:1023B300829C6C001210824E6D00121082756D00AB
:1023C3001210823C6E00121082D46E00121082FA38
:1023D30070001210822F710012108292710012107D
:1023E30082C172001210826973001210829A730004
:1023F300121082B27300121082417400121082F51F
:102403007600121082CD7800121082E97800121043
:1024130082057900121082D37900121082C67D00E2
:102423001210822C89011210825E89011210824DD2
:102433008D01121082998D01121082DF8D0112100D
:1024430082818E01121082DD8E01121082228F0191
:102453001210826990011210827D91011210826C18
:102463009501121082F09501121082FD960112104F
:1024730082599701121082499901121082BE990163
:10248300121082C89901121082D59901121082008C
:102493009A01121082E79A01121082919B01121085
:1024A300820F9C011210822F9C01121082589C01F2
:1024B3001210827A9C01121082DA9E01121082A0FD
:1024C3009F01121082E59F0112108262A001121077
:1024D3008213A10112108245A1011210828BA10166
:1024E300121082C7A10112108217A2011210826B6F
:1024F300A201121082C1A2011210820DA3011210B7
:10250300827AA301121082F5A301121082C0A501E1
:10251300121082C0A601121082E5A70112108224B4
:10252300AB0112108237AE01121082F4AE01121009
:102533008238AF01121082E8B001121082FCB001A0
:1025430012108206B10112108210B1011210821C06
:10255300B10112108238B101121082E3B1011210DD
:102563008222B2011210822CB20112108236B20101
:10257300121082A6B201121082F1B2011210820669
:10258300B40112108262B401121082E3B40112107A
:1025930082A2B501121082ABB601121082DFB7011D
:1025A300121082CDB801121082E5B80112108240D8
:1025B300B9011210825EB901121082A6B90112107C
:1025C30082CDB90112108268BA011210822EBB01AA
:1025D300121082C0BB011210823ABC011210825445
:1025E300BD0112108201BE0112108229BF01121017
:1025F3008279BF01121082DDBF011210823FC00138
:102603001210826DC00112108291C001121082C695
:10261300C001121082F7C0011210822AC1011210E8
:10262300824AC101121082B2C101121082A6C201F4
:1026330012108201C3011210822AC301121082B246
:10264300C30112108235C40112108260C40112103A
:102653008245C50112108258F20112108290F201D4
:10266300121082B1F201121082F3F201121082559C
:10267300F3011210825FF3011210826FF301121043
:1026830082AAF3011210828AF70112108277F901EC
:102693001210825DFB01121082F4FB01121082966C
:1026A300FC0112108247C701121082C5C701121024
:1026B3008221C8011210826CC80112108287C801DE
:1026C300121082B2C801121082CFC801121082DB2D
:1026D300C80112108272CA011210828BCA01121031
:1026E3008210CB0112108223CB0112108242CB0144
:1026F300121082E6CB0112108267CD011210821AEA
:10270300CF01121082B0CF01121082B3CF01121089
:102713008223D00112108241D001121082D8D0013D
:1027230012108220D10112108223D101121082E9EA
:10273300D10112108256D2011210827CD2011210E2
:102743008207D30112108225D3011210826BD301A9
:102753001210821FD40112108269D40112108298C0
:10276300D401121082F5D4011210822AD50112105D
:102773008256D50112108264D501121082B1D5019F
:1027830012108221D6011210826AD601121082B66B
:10279300D601121082E2D601121082EDD601121078
:1027A300820BD701121082F6D70112108200D801D2
:1027B3001210823BD8011210824BD801121082549E
:1027C300D801121082A8D801121082BCD8011210AD
:1027D30082EBD90112108200DA011210828EDA0123
:1027E300121082D3DA011210825FDB011210826AA7
:1027F300DB01121082ACDC01121082C7DC01121063
:102803008213DD0112108282DD01121082BBDD0111
:10281300121082D5DD0112108217DE01121082E739
:10282300E00112108294E10112108201E201121000
:102833008241E40112108259E4011210825CE40126
:1028430012108268E4011210827CE4011210828467
:10285300E401121082B7E401121082B9E5011210EB
:102863008240E601121082B0E60112108232E701C3
:10287300121082F3E70112108212E801121082B3E0
:10288300E80112108210E90112108213E9011210FB
:102893008287E901121082D6EA01121082DCEB0171
:1028A30012108267EC0112108282ED011210824A2B
:1028B300EE011210827BEE011210829EEE011210C5
:1028C30082A7EE01121082D6EE0112108266EF018A
:1028D3001210821CF00112108291F0011210823842
:1028E300F101121082ADF101121082E4F101121014
:1028F3008222F201121082F98504121082EF8504FC
:10290300121082998504121082858504121082E4C4
:102913008404121082E883041210821283041210BA
:10292300821B81041210826E8004121082008004C4
:102933001210825296031210822ECE02121082CFF0
:10294300CB02121082489603121082DD95031210F7
:102953008288C802121082C9C702121082319403FE
:10296300121082EF93031210820F9303121082F955
:102973009203121082BA920312108215920312105C
:10298300820F8F03121082FD8C03121082CA8C03F4
:10299300121082658C03121082F88B03121082B717
:1029A3008B03121082F08A031210828B8A03121097
:1029B30082368A03121082D98903121082B08803E7
:1029C3001210824D8803121082978703121082928D
:1029D3008703121082868703121082398403121030
:1029E3008226C702121082E5C602121082C6C602F0
:1029F30012108293C6021210827EC60212108253F4
:102A0300C6021210827A89041210821384031210F0
:102A130082B8830312108263830312108224830318
:102A2300121082428904121082118303121082064B
:102A33008303121082E28203121082F180031210C8
:102A430082EB880412108270800312108289E702DD
:102A53001210822C800312108200800312108258FD
:102A6300FD031210821AFD03121082EDFC031210F3
:102A730082B9FC0312108258FC0312108240FC033B
:102A83001210821CFC03121082E5F803121082B1AB
:102A9300F60312108298F40312108227F403121023
:102AA30082D6F30312108254870412108290F30328
:102AB300121082F9F20312108289D60300000080FB
:102AC300FBE4738F000100861D87000100841D3520
:102AD3000004004D1D25000200511D260002005375
:102AE3001D27000200551D280001005F1D2900015C
:102AF30000601D84000400C41A86000100E41C2A3F
:102B0300000100611D2B000100621D2C0001006605
:102B13001D2D000800D01A2E000100671D2F000193
:102B230000681D30000100691D310001006A1D327B
:102B3300000100D81A33000100D91A340001006BD8
:102B43001D36000100DA1A380001006C1D3900013E
:102B530000651D83000200821D63000100E61A6404
:102B6300000100631D65000100641D6D000100E7A5
:102B73001A71000800C81A66000100811D43000194
:102B830000721D44000200731D45000100751D46BF
:102B9300000200761D47000800DE1A480001007895
:102BA3001D4B000100791D04000100851DA10001DA
:102BB30000891D37000100881D88000100871D3C26
:102BC300000100DB1A3D0001006D1D490002007A7F
:102BD3001D67000100E81A4D0002007C1D4E000134
:102BE300007E1D4F0002007F1D3E000100711D513C
:102BF300000100DC1A520001006F1D530001007038
:102C03001D54000100DD1A00000000000000013621
:102C13003601010001020100010301000104010664
:102C23000605020000070100340801000F09040132
:102C3300010D0100FF0E080000170200001901003A
:102C4300FF1A0100011B0100FE1C0100081D020008
:102C5300001F0100012001000121020000230100E7
:102C63000F240200002601000127010008280200AA
:102C7300FF2A0100072B0102402C0100002D010057
:102C8300012E0100012F0100FF30010B1D3108004F
:102C9300003A0100083B01000F3C0100013D010027
:102CA300FF3E04000042040000460400004A040002
:102CB300004E04000052040000560400005A0400B1
:102CC300000000010020012A890000020020012BDE
:102CD300890000030020012789000000002001264D
:102CE30089000004004201E28700000500420161FF
:102CF3008700000700300128890000FDFF21012221
:102D030089000006004201038700000040420103DE
:102D130087010020002005EC1C010021002005EDA7
:102D23001C010000022105EE1C000400002105B671
:102D330019020400002905A819030400002905AAA3
:102D430019030410002905AC190304140028050E07
:102D53001D050400002105AE19080400002105B07B
:102D630019080400022105B219080401022105EE25
:102D73001C01037103010301030103010301032286
:102D83000302030103100300030003000300030015
:102D930003000300034203000324030603000300AC
:102DA300030403120325032303250323030403045A
:102DB3000300030003000344030003000323030091
:102DC30003650321003503810300030503000300AA
:102DD3000300030003250323030101710101010122
:102DE30001110101013101010101018001100161A2
:102DF300013B00140063017301720162014301008E
:102E030001130106013D0135000401120100010017
:102E1300010001000104010401330133013C0144B9
:102E23000132013600000100016501000135008116
:102E330001000105018201830100010300710030DB
:102E43000160001100700031022003500480001063
:102E5300006100000014006300730072006200430D
:102E63000000001300060000000000040012000030
:102E73000000000000000004000400370037003C9D
:102E8300024400000000000000000065000000355F
:102E930000810000000500000083000000030271B0
:102EA300023001600211027002010202020202807A
:102EB30002100261023A004100630273027202626D
:102EC300024302000213023800000200020402124D
:102ED300020002000200020002040204023700376B
:102EE300003C0244020002390000020002650200B5
:102EF30002350281020002050282028302000236C9
:102F0300000100060000000F0000000000000000A8
:102F1300000000000003FFFF00000403FFFF0000A8
:102F2300FFFF0FF4010005C4040320000100000BA0
:102F3300000000000000000003010F00000000007B
:102F4300000000000000000000000000000000007E
:102F5300000000000000000000000000003D1C5BBA
:102F63001C431C9B1B00000000000000000000002D
:102F73000000000000491C9B1B000000004F1C9B2D
:102F83001B0000000000000000551C9B1B000000FC
:102F9300000000000000000000000000000000002E
:102FA300000000000000000000000000000000001E
:102FB3000000000000000000000000831E010083E9
:102FC3001E0200F91D0280F31D0300FF1D0400050E
:102FD3001E04800B1E0500111E06001D1E31002F4E
:102FE3001E3300351E34003B1EFFFF0000060400A5
:102FF300001805BA19060401003005BB19060410B0
:103003000021030F1D060411002103111D030003FA
:10301300000400080010001F003E007B00F600ECD7
:1030230001D703AF075D0FB91E713D000007ECFD2B
:10303300FDFDECDCDCCCBCACAC9C9C8C7C7C6C6C7B
:103043005C5C5C4C4C3C3C2C2C1C1C03EAF5E5D52D
:10305300D5C5B5A59595858575756565555545455D
:10306300353525251515050A9B240265240571248C
:10307300076B240C4D240D5924FF000000160F008C
:10308300000B150B020002220F3300000E0FD0D1EC
:10309300D2D3D4D5D6D7D8D9DADBDCDDDEDF5A6993
:1030A30067426565416C6C69616E636530393030C8
:1030B30016181920231A1C1E3000034D4C465118B4
:1030C3001A250502000119161816161823030030D5
:1030D3003017181921301B1D1F30003C40423A3F66
:1030E3003F392F47300C0E020B040B0A0708000F61
:1030F300020402010101010902020400002905B4CE
:103103001900BE040AE803000003000100E80324D9
:1031130000041E0901160403101E030A0C040F0801
:1031230028020C05081505FFC082C0831214A59060
:103133001B13743DF0A37422F0901B157443F0A38A
:103143007422F0901B177449F0A37422F0901B199A
:10315300744FF0A37422F0025E6674F7120AF490BF
:103163001B07E4F0E9901B06F07CDE7D1A7A087BEE
:103173001B121B71901D78E0901B10F0901B1174B3
:10318300C8F0A3741A0240F374F0120AF4EAFEEBD7
:10319300FF548070030232FC901B061241887003B7
:1031A3000232F5EA241B1259F3707CEA241F1259E8
:1031B300F364137002A3E0706E8A828B8312334A26
:1031C300901B21124F85750A00750B00800D123F6D
:1031D300C9127065121A8DAA0EAB0FEA4B60488AAA
:1031E300828B83E0650C7004A3E0650D702C8A82EA
:1031F3008B83A3A3A3A3E0F50EA3E0F50FE50A4594
:103203000B8A828B83A3A3A3A360C31242CB850A39
:1032130082850B83A3A3A3A380B78A0A8B0B8A821D
:103223008B83124F8180B4E508242A1259F3FCE5FD
:10323300082402F8E43509F9E8FAE9FB901B2112A6
:103243003431A3A3E06402703C8A828B83124F85DE
:10325300800B88828983A3A3A3A31242CBE849608E
:103263001F88828983E06A7003A3E06B70E488821D
:103273008983A3A3E06C70DA901D7E125D23806BBB
:10328300ECF9122279850882850983E06401704F85
:10329300E50824181233331210BE12660D120ED72E
:1032A300E50824121233331210BEE50812417C12D2
:1032B30010BAE508240B126611120EDBE508241779
:1032C300124119E5082402FCE43509FDE508241937
:1032D300FAE43509FB122A95740A1210CD800CE02A
:1032E30064027007AA08AB09122357AA08AB091294
:1032F30019F7EEFAEF6480802DEA5402600C901DFA
:10330300D97401F0EA6402FA8023EA5408601A12BD
:103313002273EA4B700B901B231264E87A08123372
:1033230040EE6408FAEFFB80047A007B00026C979E
:10333300F582E43509F583E0F50A780A22FB901B50
:1033430006E0F9121B4722A3A3E0F50CA3E0F50D59
:10335300227B00901B06E0F9121B3B74042274F4D9
:10336300120AF48A088B098A828B83A3A3A3124DC2
:103373007D12412438F583E02409FA126C2F70037F
:103383000234248A828B837402124DF2850882856B
:103393000983123431E8F0A3E91268A98A828B8386
:1033A300A3A3A3A3A3A3A3A3F0E5082403F8E435ED
:1033B300091234261241243AF583E08E828B83A3CB
:1033C300A3A3A3F0EE2409FAE43FFB8E828F83A329
:1033D300A3125FD5F5838882E0A2E58E828F83A353
:1033E300A3A3A3A3500474018001E4F0E50824031C
:1033F300F5828983124F85EA1255063BF583126BDA
:10340300F61210B61241233B1260C78E828F83A33C
:10341300A3127DA51210CDEEFAEFFB901B06126CE2
:103423007C8016F98882F583E0FAA3E0CA22125160
:1034330022A3A32274021210CD7F04020E0C74F295
:10344300120AF48A088B09ECFAEDFB740E1213D8F6
:10345300E0FC1214DB8A0C8B0DAE0CAF0DEA4F604F
:1034630030AC08AD091214C9E96026AC08AD09EE09
:10347300FAEFFB1214CFE970148E828F831242B8D5
:10348300FAEFFB1214C3AA08AB091214F3790080F4
:103493000279B402507174F0120AF474F6121165D1
:1034A300EAFEEBFF8C088D09750FB3852182852217
:1034B30083E4F0750E008002050E903129E493F841
:1034C300E50EC39840030235C0AA0E7B0012151700
:1034D3008A0A8B0BEA4B60E08A828B83A3A31235A3
:1034E300C728F0F8C3EE98EF940050CC7C157D000C
:1034F3007900AA08AB091219DF850A82850B83A319
:10350300A3A3A31270A2E0F8EEC3982925E0F8E480
:1035130033F9E50A28F582E50B39F583A3A3A3A3C1
:10352300A3A312412EA3125B4A8A0C8B0DAC0CADE4
:103533000DAA08AB09121B71850A82850B83A3E0D0
:103543006401700A12660D740112414080447401D3
:1035530012115D850A82850B83124F831214FFE9D2
:10356300603D74091213D8E0C0E012660DD0E0F09C
:1035730074091213D8E064037013740112115DE52A
:1035830008240BFAE43509FB121B71801274011233
:1035930013D81242CBE508125B30350912706385EC
:1035A3000A82850B83126619124140A3A3E0C0E08F
:1035B300E5082414126611D0E0F0750F00A90F740A
:1035C3000A026C94A3A3A3E0F8852182852283E0F9
:1035D3002274F7120AF4E9FE8A828B83A3A3A3A3BE
:1035E300A3A3E0540860338A828B83A3A3A3A3A37A
:1035F300A3E0540260218A828B83A3A3A3A3A3A382
:10360300A3A3A3E06406600F74E96E600A74CD6E31
:10361300600574F06E700312225B02497074F0123D
:103623000AF474EF121165740F1213D81263CC7479
:10363300081213D8E9F0ECFEEDFF74051213D8124B
:10364300473812495CA3E0F91214E774061213D841
:103653001263CC74061213D812559770030238DB29
:10366300124168E0FA74061213D8E0F912219B1292
:10367300393BF8A3E0F9E84970030238DBEE240391
:10368300F50AE43FF50BEE2406F508E43FF5097C63
:1036930000850882F583124F85850A82850B83E0B6
:1036A300F91214ED74031213D81263CC850A8285C0
:1036B3000B83E0C0E0852182852283123934D0E078
:1036C3001256ACF9852182852283123FD01251FE16
:1036D3001235CAFAA3E0CA2407F582E43AF583E86F
:1036E300F0A3E41263D72406F582E438F583E412E9
:1036F300706F124D711210B6EE1241243F1260C763
:1037030074031213D8124D7D2409127D9F1210CD1C
:1037130074291213D812709C12342B1256BF3A120A
:103723007063742B1213D8E0C0E085218285228355
:1037330012555ED0E0F074021213D8E4F07425122F
:1037430013D8780812138102383274031213D81273
:10375300608F8882F583123923A3A3A3125B55FBE1
:10376300121505850E82850F83A3EAF0A3EBF0748F
:10377300031213D8123934A3123923125D64A2E65B
:10378300500F850E82850F83A3A3A3A3A3E0D2E1E9
:10379300F074051213D8E0706B850E82850F83A336
:1037A3001242CB901B61E0687003A3E069705585FA
:1037B3000E82850F83A3A3A3124103750C00780C1B
:1037C3001210BE78081210B274291213D8E0F50C47
:1037D300780C1210BE74271213D8120EDB901B6ED6
:1037E300120EDB790074191213D8124F5512239F4E
:1037F300740A1210CD850E82850F83A3A3A3A3A3FE
:10380300E04405F074021213D8E004FC8E828F8327
:10381300124F7F8E828F83A3A3A3E0F91214ED745A
:10382300031213D81263CC74021213D8E004F07499
:10383300031213D8125597606774021213D8E0FA73
:1038430074061213D81242CBC3EA98E49950517408
:10385300021213D8123C0D852182852283E028F8B9
:10386300A3E039F9E8240FF50EE439F50F850E824C
:10387300F583E4F074031213D812392E6401600344
:1038830002374D74051213D87401126C82F074035D
:103893001213D8125E56123C30E8F0A3E9023771D6
:1038A300852182852283124F851221A1852182855C
:1038B3002283120EDB74261213D8E0FD7425121333
:1038C300D8E0FC740A1213D8E0F9EEFAEFFB1222E7
:1038D3005574021210CD80438E828F83A3A3A3E07D
:1038E300C0E0740C1213D8D0E0F0126AEBE0C0E031
:1038F300740D1213D8D0E0F074061213D812559732
:103903007009740E1213D874B98007740E1213D889
:103913007410F074091211551223997411026C94E6
:10392300E0850E82850F83A3A3A322E0125684E0D1
:1039330022E0125684A3A322852182852283EAF002
:10394300A3EB1255A02274F0120AF474E11211656C
:1039530074041213D8E9F074031213D8ECF0740250
:103963001213D8EDF08A0E8B0F742F1213D8123363
:103973004CAA0CFB12218F74011213D8E9F0AA0C84
:10398300AB0D12219574011213D8E07003023C08A9
:10399300852182852283E480158E828F83A3A3A34E
:1039A300A3A3E0D2E3F0852182852283E004126B96
:1039B300DAF8852182852283E0C3984003023BFF26
:1039C30074011213D8E07003023BFF852182852224
:1039D30083123C0DE50C28F8E50D39F9E8240FFEB8
:1039E300E439FF8E82F583A3A3A3A3A3E0A2E0405F
:1039F300B5750800750A08750B0074021213D8E038
:103A030060037508207C087D007900740512115548
:103A13001219DF8E828F83E0603E901BB1E0640158
:103A2300701AE508D2E3F508750B10123C1D12134A
:103A3300D8E8F0A3E9125A4874FF807643080C755E
:103A43000A0C8E828F83A3123C28127065740512B0
:103A530013D874FFF0A3805A74041213D8E06009DA
:103A6300E508D2E6F508750A0A8E828F83A3E0641F
:103A7300FE7003A3E0F4703074121213D8740412AE
:103A83006637F8741D1213D8E8124DF2741212112E
:103A9300551220BD7D007C00790074151213D8AA3D
:103AA30082AB83121E6B800B123C1D1213D8E8F0FD
:103AB300A3E9F074071213D8E508F012415FC0E0E0
:103AC30074091213D8D0E0F0740A1213D87401F0F9
:103AD300740512115512235D74111213D8E060039B
:103AE300023BDD740D1213D81256A78E828F83A367
:103AF300A3A3A3F0740D1213D8124DC0E50AF0A3CB
:103B0300E50BF074031213D8E0C0E0124D51D0E07E
:103B1300125D646011901BB1E0C0E0740D1213D804
:103B2300124D9BD0E0F0740D1213D81242CB850CCA
:103B330082850D83A3A3A3A3A3123C16241C1263A3
:103B4300C612707F123C18125D1639126B0AC0E060
:103B5300124D38D0E0126BCFC0E0740D1213D8129F
:103B6300487ED0E01268D0C0E0740D1213D812481A
:103B730074D0E0F0740D1213D8123C28123C1624B2
:103B83002A1263C6850E82850F83A3A3A3A3A3A3CF
:103B9300A3A3E01263BF12414EC0E0124860D0E01D
:103BA300F0740D1213D8124F85850E82850F831280
:103BB3006BE52428F582E43B127063124157126BC4
:103BC300F61210B61260C0EA1263583B127DA312BC
:103BD30010CD74051211551223638E828F83A3A314
:103BE300A3A3A3E0D2E0F074111213D8E0600302A0
:103BF300399C74011213D8E0140239A87900AA0C75
:103C0300AB0D122261741F026C94E075F007A4F8E7
:103C1300A9F022A3A3124F89E8228E828F83A312D5
:103C230042CF740522E0123C30A3A3A322F8A3E001
:103C3300F9850E82850F83A32274F0120AF474E8C7
:103C4300121165E9852182852283F08A0E8B0F8A02
:103C5300828B83A3A3A3A3A3A3A3A3E0F91221B9F4
:103C63008A088B09EA4B7003023D19E50E12551AB7
:103C730012417712410E852182852283E06003027F
:103C83003D1C7C04850E82850F83A3A3A3A3A3A35A
:103C9300A3A3E0F91221BFEE4F607B8E828F83A333
:103CA300A3A3A31242CB74071213D81264FD1242CA
:103CB300CB74091213D8124E22C0E074111213D818
:103CC300D0E01268AEA3A3A3A3A3A3A31242CB7411
:103CD3000F1213D812706574121213D8E4126C8A7F
:103CE300C8241FF582E438F58312608BC413135480
:103CF30003FC70027C048E828F83E0F97808121033
:103D0300BA742059FD744059F974031211551222E3
:103D13005574021210CD026C927C08850E82850FB9
:103D230083A3A3A3A3A3A3A3A3E0F91221BF8B0B94
:103D3300EA4B7003023C9AEE4F60DB8521828522B9
:103D430083E0F50C780C1210BE850882850983A3E5
:103D5300A3A3A3A3A3A3E0F50C780C1210BE8A823D
:103D63008B83A3A3A3E0FB8A82850B831278C28A89
:103D730082850B83E0FA8E828F83A3A3E0F9122A54
:103D83009B74021210CD023C9E74F7120AF474FA6B
:103D9300121165E9FE780179017F00800379000F34
:103DA300125101E0FCEFC39C5026EF75F007A4FC11
:103DB30085F008AD08EA2CFCEB3DFD1246F0E0A2CD
:103DC300E050DA540C60D6E0A2E250D3780080CF02
:103DD3008A828B83A3A3A3A3A3A3E0703DE9A2E0FC
:103DE300400574016E70338A828B83A3A3A3A3A3BC
:103DF300A374011240E0E0C0E074031213D8D0E0D2
:103E030012474FE0C0E074041213D8D0E0F07405F9
:103E13001213D8E812602A122399740602496DC05E
:103E230082C0837901122261025E6674F4120AF47D
:103E3300EA4B901DD96019E4F08A088B09F50AF55D
:103E43000B78081210B27A021233541210CD800A82
:103E53007401F07A027B0012334102343C74F01295
:103E63000AF474F312116574031213D8E4F0A3F087
:103E7300901B2112410E74011213D8E4F0A3124DCA
:103E8300F704F0901B5BE0A2E35003023F531240A0
:103E9300D474091213D81213C174091213D87808F1
:103EA300121381901B23780812113574051213D84D
:103EB3007808121372123FD774051213D8780812B8
:103EC300131550077A017B00023FC474051213D8FF
:103ED300780C121381901D7DE0F509780C79081296
:103EE3000A85A80CA90D901D7EE0C398E4995003A0
:103EF300E08001E8852182852283F074091213D8BA
:103F03007808121381C008C009C00AC00B740512D7
:103F130013D8780C121381123FD7780C7908120A40
:103F230085E4F50AF50BD00FD00ED00DD00C780C2C
:103F3300790812120D901B23780C12137280111240
:103F43003FC9127065EEFAEFFB121A8DAE08AF0986
:103F5300EE4F60658E828F831235C7C398502DEE66
:103F63002403F8E43FF9E0FA88828983E0C39AF0F6
:103F7300602374031213D812443174011213D8EE60
:103F8300F0A3EF126518FEA3E0FF80C48E828F8337
:103F9300A3A3A3E4F08E828F83127D5C74011213BA
:103FA300D81255978E828F83A3A3A3A36091126423
:103FB300F11213D8123FD0808974031213D8124F11
:103FC30085740D026C941242CF901B21221260B6AD
:103FD300A3A3A322901D7C127D64E4F50AF50B22B2
:103FE30074F0120AF48A088B09890A780079009020
:103FF3001B2112410EFBEE4B601E088E828F83A3A2
:10400300A3A3A3124F4F601008E87001098E828F9B
:104013008312410AEA4F70E3901D7F124F85C3E874
:104023009AE99B40030240C77A061240CAA80CA92A
:104033000DEA4970030240C78A828B83E508F0A327
:10404300E5091240E9E50AF0901D7E12510912407C
:10405300E0A3E4F0A3F0901B21124F4F600D8E827A
:104063008F83A3A3A3A31270658017901B211270E3
:1040730065901B5BE0A2E340091240D4901B23121E
:1040830013C1901B5BE0A2E3503A7A087B00901BBC
:1040930006E0F9121B4DEA4B4C4D7028901D7CE055
:1040A300F508A3E085080CF50DE4F50EF50F780C83
:1040B3001210B27A087B00901B06E0F9121B4174C0
:1040C300041210CD026C977B00121A878A0C8B0D99
:1040D30022121B59EAF8EBF9ECFAEDFB221240E449
:1040E300221240E9A322F08A828B83A3A322E5084C
:1040F300F0024970F08E828F83A3A3A3A3A3A3220C
:10410300125A01A3A3F022A3A3A3A3E0FEA3E0FFFB
:10411300227F05020E0CF582E43509F583E0F922CE
:10412300EA124128222410F582E422124136A3A385
:10413300A3A3221242D38508828509832212414414
:1041430022F0850A82850B83A3A322E50E24111294
:104153004174E022E50E240E12417422E50E241070
:10416300124174E02212416C22EE1241283FF58382
:1041730022F582E4350FF58322240FF50AE435098D
:10418300F50B780A22E0F9121A098A088B09EA4B1F
:104193002274F2120AF4890B8A088B098A828B83B0
:1041A300124F85122285EA4B600479B8806A122285
:1041B30091E9F890311BE493F9E8C399400479B28B
:1041C30080567A151240CAAE0CAF0DEA4F700479CF
:1041D3001080458A828B83E4F0A31240E9E50BF05B
:1041E300750A0078081210B67C127D00EA240312C7
:1041F3006BA11210CD901B271255977008901B27A7
:10420300800C1242CB8882898312421E70F4EEF036
:10421300A3EFF01222A37900025071124F89EA4BE7
:104223008882898322C082C083901B2780048C826A
:104233008D831278C3EC4D60288C828D83A3A3E019
:1042430069600574FF6970E68C828D83A3A3A3E084
:104253006A7003A3E06B70D6EC2403FAE43DFB80A1
:10426300047A007B00025E6674F7120AF4E9FD74B7
:10427300FE6D70047C0180027C00901B2780096D19
:1042830070027C0188828983125597601F88828916
:1042930083A3A3A3E06A7003A3E06B70E7ECA2E03F
:1042A30088828983A3A3E050D6F9800279FE02496C
:1042B30070EEF9800CA3A3127D64EE227402121037
:1042C300CD7F02020E0CF5831242CF221242D3227B
:1042D300E0F8A3E0F9221242D38E828F83221210D8
:1042E300CD7F03020E0CC082C0837900901B278010
:1042F3000109E0FAA3E08A82F583E582458370F140
:10430300025E6674F6120AF4E4F508F509780812F9
:1043130010BA90311BE49375F013A4A9F01244264C
:104323001270C31210CDE9FE74096E700312229D40
:104333000242B474F6120AF474FE121165852182E6
:10434300852283E4F0A3F0A821A9228808890978AB
:10435300081210BA75080275090078081210BA120B
:104363006D341210CD0242BF74F5120AF474EB12CD
:104373001165852182852283E4F0A3F0901B2780B9
:10438300748E828F83A3A3E0C0E074021213D8D08B
:10439300E0125A48A982AA8389088A09750A007813
:1043A300081210B67C127D0074061213D81270889E
:1043B3001210CD740212114D880889097808121061
:1043C300BA75081375090078081210BA7404121329
:1043D300D812553A75F013A4F8AAF075F013E91240
:1043E3004422126D3C1210CD852182852283124412
:1043F300318E828F8312410EEE4F7085A821A92240
:104403008808890978081210BA75080275090078B6
:10441300081210BA126D341210CD74150242E1A4C1
:104423002AF9E82402FCE439FD7A427B0022E024E5
:1044330001F0A3E03400F02274F4120AF474EB12D6
:1044430011657E007F00A821A922880889097808C0
:104453001210BA7508028E0978081210BA7C007D12
:10446300007A421270CF1210CDE9706C8E0880561C
:10447300740212114D880A890B780A1210BA750A50
:1044830013750B00780A1210BAE50875F013A4F837
:10449300AAF075F013E5091244221270D11210CD5F
:1044A300E9701B74031213D8AA82AB83740212132C
:1044B300D8E0F912227FE970050EEE70010F0508AE
:1044C300E508700205098521828522831242CBC348
:1044D300E50898E509994098EEFAEFFB7415023464
:1044E3003974F6120AF48C828D83A3A312473DF02C
:1044F300EA12635E3BF583E0C0E01246FAD0E0F0D7
:10450300EA241DF582E43B1242C91246DE12473803
:10451300F0A3F0EA241FF582E43BF58312410EEC8D
:104523001246D13DF583EEF0A3EFF01246D73BF5EB
:1045330083124708A3A3A3A3A3A3EEF0A3EF125FE1
:10454300B9FE8C828D8312474774035EFEC39403C6
:1045530040030246C4EE600874026E60030245E93C
:104563008C828D83E0540CFE740C6E70030246281B
:10457300E0A2E4400D88828983E08C828D83A312BC
:10458300475D74086E60030246281246E87401F022
:104593008A828B83A3A3A3A3A3125A0E70148C82C3
:1045A3008D83E0440C12474FA3A3124708EEF0A3F8
:1045B300EFF08C828D83E0A2E4402B8882124716B1
:1045C30012472B500109F582124716A3A3A3A3A3F5
:1045D300A3F0A3EF1247578C828D83A3A3A3F0E824
:1045E3002403F850010988828983E0C0E0EC241198
:1045F300F582E43DF583D0E01247478C828D83E05A
:10460300A2E7507588828983E0FE8C828D831247EE
:104613005D74FC5E700C8C828D83A3E05403640391
:10462300701E0246C41246E8E4F0740C6E60030286
:104633004593888212471C12472B5001090245B546
:104643008C828D83A3E05403603288828983E0C027
:10465300E0EC1247023DF583D0E012475E8C828D79
:1046630083E054036402701488828983E0C0E012FB
:1046730046F0D0E012475E8003A3E4F0EC12550647
:104683003D127063EC2410FEE43DFFEA241DF58225
:10469300E43BF583E0F5088E828F83E0C398250819
:1046A300F508F0EA2417F8E43BF98882F583E0C3C0
:1046B3009508C0E01246DED0E0125FB9C3950850FA
:1046C3000A1246DEE4F01246FAE4F00242C424156C
:1046D300F582E422EA240DF582E422EC240DF5822E
:1046E300E43DF58322EC1256BF3DF58322EC2414FE
:1046F300F582E43DF58322EC1241283DF583222423
:1047030013F582E422E0FEA3E0FF8C828D83A3A352
:10471300A3A32212471CA3A3228983E0F508A3E0E5
:10472300FFE5088C828D8322A3A3A3A3F0A3EFF05C
:10473300E82402F82212473DA322E4F08C828D8301
:10474300A3A3A322124765A882A983221240E4A34C
:10475300A3A3A322124765A3E022A312476508A9D6
:104763008322125FC2A32274F4120AF474F31211A7
:10477300658A0A8B0BECFEEDFF8C82F583E0540C0B
:10478300F508E0A2E75006E508D2E7F508E508D208
:10479300E1F508125A0E7006E508D2E4F508E0A226
:1047A300E55006E508D2E5F5087C087D007900AA06
:1047B30021AB221219DF74021213D8E508127069B3
:1047C300C0E074031213D8D0E0124DF7E50AF0A34A
:1047D300E50BF074051213D81268D51213D8E070E4
:1047E3007774081213D8124D7D125FAB381268F03C
:1047F300C0E074081213D812487ED0E01268D0C00B
:10480300E074081213D8124874D0E0F0740812133D
:10481300D812486AE0124DA5124E261263BFEE2449
:10482300111259DAC0E0124860D0E0F0EE241412FD
:1048330059DAC0E074081213D8124D7D2435F5827D
:10484300E438F583D0E0124DCAC0E074081213D8DF
:10485300124D81D0E0126629740D023439E82432F6
:10486300F582E439F583221242D9A3A3A3A3A3A318
:1048730022124D91126ACF38F58322124D912426CC
:10488300F582E438F5832274F7120AF47E008A82F3
:104893008B83A3A3A3A3A3A3A3A3A3E064046003A1
:1048A30002494C1256B7E0600302494C1255193BBA
:1048B300125595700302494C88828983E054036042
:1048C3000302494CE81256BF39F583E0FA8C828D16
:1048D30083A3A3E0FBA3E0CB2411F582E43BF583A0
:1048E300E06A706588828983A3A3A3A3A3A3A3A378
:1048F300A3124950E06A7003A3E06B704C8882896D
:1049030083A3A312495CE0FFA3E0CF24061259DA84
:104913006A7003A3E06B703188828983A3A3E0F8F4
:104923008C828D83A3A3E0F9A3E0F5838982A3A3FB
:10493300E06860138C828D83A3A3A3E0F58389824F
:10494300E0540C640470027E01EEF9802012495495
:1049530022124F8D8C828D8322A3A3124954A3A3C9
:1049630022740C1213D8E0F9740D1210CD7F0102DA
:104973000E0C74F6120AF474FC121165EAFEEBFFD6
:10498300ECFAEDFB8C82F583A3E054036016901BD5
:104993001D12559760597900EEFCEFFD1261B612B6
:1049A3002AC4804B852182852283EEF0A3EFF07425
:1049B300021213D8124DECAC21AD227ABB7B22122A
:1049C30024E38A088B09A808A909EA4960218A8295
:1049D3008B83A3A3A3A3A3A3A3A3A37406F07A0027
:1049E30088828B83124D7D12637FE0F91224417418
:1049F300040242C174F2120AF474F3121165EAFE5E
:104A0300EBFF8A82F583A3A3A3A3A3A3A3A3A3A3D7
:104A1300E0F50A901DD9E0700579BA024D357508A5
:104A230001750900750C00750D007C087D00790087
:104A3300AA21AB221219DF74051213D87401124D87
:104A4300FF5404601274021213D8E0D2E6124DFF31
:104A530054087003750803E0541060067440450859
:104A6300F508E05408602274021213D8E044C0121F
:104A73004DFF5420600A74031213D8E0D2E080087B
:104A830074031213D8E0D2E1F0EE24151259DA12AE
:104A93004D657003740169700674084508F5088E46
:104AA300828F83A3A3A3A3A3A3A3A3E070161225BA
:104AB3003D8521828522831263CC74021213D8E0D0
:104AC300D2E28030640F701074021213D8124E07B2
:104AD30074044508F508807F8E828F83A3A3A3A364
:104AE300A3A3A3A3E064028E828F83700A12709C37
:104AF300E8F0A3E9F08060A3A3A3A3A3A3A3A3E087
:104B03006403700DAC21AD22EEFAEFFB1222F180AB
:104B1300468E828F83A3A3A3A3A3A3A3A3E06401CD
:104B23007035901BB1E0601074021213D8124E0757
:104B3300750910750AFF801874021213D8E0440C2B
:104B4300124DF774FDF0A374FFF074044508F508E3
:104B53008E828F8312334CEE24151259DAA2E05061
:104B63003F74021213D8E0540C701B8E828F831291
:104B73004F85121F37E9700579BB024D3574021258
:104B830013D8E0D2E5F0EE24151259DAA2E0501062
:104B930074021213D8E0540C64047004E0D2E5F0FC
:104BA300EE24111259DAC0E074041213D8D0E012C3
:104BB30068D71213D8E06003024D2E74081213D87D
:104BC300124DC0E508F0A3E509F0124D5BE0C0E02B
:104BD300124D51D0E0F0124D42E0C0E074081213C0
:104BE300D8124D7D12470238F583D0E0124E266469
:104BF300017011901BB1E0C0E074081213D8124D7C
:104C03009BD0E0F074081213D8124DBB124D4CFA2E
:104C1300E8241CF582E439F583EA124DF2EE2415FB
:104C2300FAE43FFB8A82F5831278C3E8125D1639F2
:104C3300F583124DECEE241C1259DAC0E0124D3804
:104C4300D0E0125E5C124D657003740169701374D9
:104C5300081213D81256A7FAEE241D1259DAF912C4
:104C630021C58E828F83A3A3A3A3A3A3A3A3A3E09E
:104C7300C0E074081213D812487ED0E0F074081212
:104C830013D8124874E50AF074081213D812553A6F
:104C93002428F582E439F583E50CF0A3E50D124DE4
:104CA300D2124DA5125A531263BFEE124D4CC0E0FF
:104CB300E82433F582E439F583D0E0F0EE241B12C7
:104CC30059DAC0E074081213D8124D81D0E0F0EE27
:104CD300241A1259DAC0E074081213D8124D7D2435
:104CE30032F582E438F583D0E0124DCA124D7112C9
:104CF30010B6126AD51278C3740B1213D8124D7DF5
:104D0300242F127D9F1210CDEE24151259DA544030
:104D13006012901B3D125597600AAA21AB221261C3
:104D2300B6122AC4AA21AB22122363740C1213D81D
:104D3300E0F902506CE82420F582E439F58322EE91
:104D43002419F582E43FF58322126AE4E022E82481
:104D530012F582E439F58322EE2418F582E43FF557
:104D630083225480F8A3E05401F974806822F50883
:104D7300A3E0F509750A00780822124D9122124D1D
:104D8300912434F582E438F58322A3A3A3A3124D1F
:104D93009522E0F8A3E0C822124D911246D138F5CE
:104DA3008322FAA3E0FBE8242AF582E439F583EAB7
:104DB300F0A3EB22A3A3A3A31242CFEE2212553EEC
:104DC30012551E39F58322F0EE2413125A5B22F09A
:104DD300EE240D125A5B22E0FC8A828B83E02CFCCA
:104DE300A3E03400FD8A828B83ECF0A3EDF022F084
:104DF300A3E4F022F085218285228322F0EE24159C
:104E0300125A5B22E0D2E3F0124E0F228E828F837E
:104E13001242D3852182852283E8F0A3E9F022E8B8
:104E2300F0A3E9126512E02274F7120AF48A828B66
:104E330083A3E0640170047E6380027E648A828BB4
:104E430083E060087905124E5F24F3FE901B59E05E
:104E53006007F9124E5F24F2FE02494C12240BE95B
:104E6300F8EEC3982274F6120AF474FE12116585E3
:104E730021828522831263CCE9FEECFAEDFB9005D7
:104E8300C21255976032A821A92288088909780897
:104E93001210BA7D01740E1213D8E0FCEEF99005DE
:104EA300C21263A0122AC474021210CDEA4B60042A
:104EB3007900800679B2800279B60242BF74F71294
:104EC3000AF4E9FE901B13125597601F740912131D
:104ED300D8E0F50878081210BEEEF9901B131263A0
:104EE300A0122AC474011210CD800279B60249704F
:104EF30074F7120AF48908ECFEEDFF79B5E508248E
:104F03005E602014600624F86034803D9005C4126E
:104F13004F4F60351270E0122AC48E828F83126362
:104F2300CC8024901B151278C3EC4D601CEEFCEF73
:104F3300FD901B151263A0122AC4E9F9800B901B84
:104F430011124F55121B717900024970124F89EAF1
:104F53004B221278C7EEFAEFFB2274F7120AF4E938
:104F6300FE79B574AB6E700B901B11124F85121B3B
:104F73007179000249708E828F83A3A3A3A3A3A395
:104F8300A3A3124F8922124F8D22E0FAA3E0FB2242
:104F930074F1120AF4EAFEEBFF8C0A8D0B7508011B
:104FA300901B61E06E7003A3E06F700C125060AA57
:104FB3000AAB0B121B71805E122543EE6A7002EF7F
:104FC3006B7009AA0AAB0B122549804AAC0AAD0BD8
:104FD300EEFAEFFB122099E9F508901D84E0703694
:104FE3001229CFE97030E508702C901B31E06E7008
:104FF30003A3E06F7020EE4F601C750C29750D1B29
:10500300750E00780C1210B67C087D00AA0AAB0B53
:1050130012708C1210CDA9080279BF74F2120AF42F
:10502300EAFEEBFF8C088D09750A01125060EEFA57
:10503300EFFB121B6BE964017011901B611242CBF1
:10504300850882850983127065800EAC08AD09EE70
:10505300FAEFFB12209FE9F50AA90A8011122537FE
:105063008A0C8B0DAC0CAD0D22740D1210CD7F0686
:10507300020E0C74F6120AF4EAFEEBFF7A0D7B00C3
:10508300121A87EA4B6062EE2424126D69F0EE2453
:1050930025126D69A312512E126D6FA3A3126B0219
:1050A300125109F0EE1250EF12511EE8F0A3E9126B
:1050B3005145125116127065EE1250F8126BC5A3CA
:1050C300A3A3A3F0EE24331259DAC0E0125101D0A6
:1050D300E01268F4125116A3A3A3E8F0A3E9125156
:1050E3003DC0E01256B7D0E0F00242C4242AF58254
:1050F300E43FF58322242EF582E43FF58322EA126E
:105103005B303BF5832212510D22E08A828B83A30D
:10511300A3A322126C24A3A3A3A32212512222121B
:1051230042D38A828B83A3A3A3A322F012513322F7
:10513300EE2426F582E43FF58322F0EE2432125A60
:105143005B22F0EE242C125A5B2274F4120AF474DC
:10515300FE121165ECFEEDFFEC24161259DA64051C
:105163007010EC2406FCE43FFD1222EBE97003020D
:1051730051F9AC21AD22126E1E121F3D852182858D
:105183002283125597606B8E828F83E0640170587F
:10519300E875F009A4F8AAF075F009E9A42AF974EE
:1051A3008828F8740839F9E8FAE9FB8882F58378E6
:1051B30008121381EE12529B121315402785218288
:1051C300852283124DBB1259E81251FE780812133F
:1051D3008190886E78081212968A828B83780812DF
:1051E3001372800A79A28010EE240F12705F790087
:1051F300800679A1800279C8023437124E1CEE1260
:105203006AF02274F2120AF48A0C8B0DECFEEDFFA5
:10521300EC1259E8E4F0A3F090882E780812138179
:10522300EC12529B1211D06067EC240E1259E170FC
:105233003478B3901B58E07028901B8AE0640170A7
:1052430020EC24111259DAF91223F38B09A909EE80
:1052530012551A3F1263CAEA496004780080027843
:10526300A18808802EE060046402700A1222FDE91E
:10527300F5087007801DE064037010EEFCEFFDAAD3
:105283000CAB0D121F61E9F50880087508A18003B6
:105293007508A3A908025071126AF078082274F005
:1052A300120AF474F5121165EAFEEBFFEA240AFC14
:1052B300E43F8C82F583127D60125524740312112E
:1052C3005D8A828B831261C0E9700302538A740181
:1052D30012115D7403121155121F3D74011213D87C
:1052E300125597700302538AE875F009A4F8AAF0DF
:1052F30075F009E9A42AF9748428FC740839FDE5DA
:1053030008240E126611E4F0041213D81242CBE5FE
:105313000812551A35091270638C828D831213B5E6
:10532300E50824121266111213C190886E780812D0
:1053330013818C828D8378081212A98C828D8378D5
:105343000C12138190890E7808121381780C790856
:10535300120A85E5084509450A450B702A740112AE
:1053630013D812553A75F009A4F8AAF075F009E9B3
:10537300A42AF9748C28F582740839F5837401F032
:105383007A007B081255478E828F83A3A3A3A3A31E
:10539300A3A3A3A3A3E02406FCA3E03400FD8E8211
:1053A3008F831261C01268E2603EEE240A12550C2C
:1053B300124DC07468124DF2E812550639F5837424
:1053C30002F0901B431213B58C828D831263B912C2
:1053D3005FAB3CF5831213C190886E78081213817A
:1053E300901B4378081212A9125582705D901B110D
:1053F300125532A3A3A3A3A3A3A3A3A3A3125FE161
:10540300121B6BE97010125F9F901B11125FB1703A
:10541300051268E260348E828F83A3A3A3A3A3A3A0
:10542300A3A3A3A3125532124F85121F67E960117C
:105433008E828F83A3A3A3A3A3A312556EE4F0A329
:10544300F08E828F83125554E4F01255826003026A
:1054530055018E828F83A3A3A3A3A3A3127D5C9084
:105463001B58E060030254F6901B8AE0640160035A
:105473000254F6750A3A750B00780A1210BA7402D0
:1054830012114D880A890B780A1210BA12735B1233
:1054930010CDE9705BE508240E12661174011255F4
:1054A3009CC0E0E5082411126611D0E0F0E5082461
:1054B3000F126611743A124DF2901B3F1213B5E5A9
:1054C3000824121266111213C190886E7808121301
:1054D30081901B3F78081212A990886E78081213E6
:1054E30081901B3F78081211D07008125543800336
:1054F3001255241255827006125EA274A1F0740B29
:10550300026C94240EF582E422F8E43FF9E8FCE906
:10551300FD8882F58322EA12551E22240FF582E4C8
:1055230022E50812551E3509F583E4F0A3F0221293
:1055330078C78E828F832212553E221242D3E822ED
:105543007A007B029019E8E0F9121A33228A828BDF
:1055530083A3A3A3A3A3A3A3A3A3A312556222126A
:105563004D95240EF582E438F58322A3A3A3A31259
:10557300557622124D95240FF582E438F583228E59
:10558300828F83A3A3A3A3A3A3124D8D240FF5821C
:10559300E438F58312553E49221255A022F08521A5
:1055A30082852283E02274F6120AF4EAFEEBFF7A84
:1055B300237B00121A87EE240AF508E43FF50985D8
:1055C30008821263CA7C237D0079001219DF8508E3
:1055D30082850983125597700302566AEEFAEFFB30
:1055E30012230912558260748E828F8312569D6432
:1055F300018E828F83A3A3A3A3A3A3700712569341
:10560300740E802112559770101268E2700B8E820F
:105613008F83A3A3E0A2E05007125689740D80057F
:1056230012568974051268F4540364017007125604
:10563300717405800B901B59E0C0E0125671D0E0E5
:105643001256ACF5838882125A078508828509832E
:10565300124D7D12635E38F583E9800E85088285DD
:1056630009831264438003126386F00242C48E826C
:105673008F83A3A3A3A3A3A3A3A3A3A312568322AA
:10568300E01263A5A3228E828F83A3A3A3A3A3A364
:10569300124D8D12636438F58322A3A3A3A3A3A39E
:1056A300A3A3A3A3125562E0221256B022126E33B3
:1056B300F8A3E022EA1256BF3BF58322240CF582BD
:1056C300E42274F1120AF474E41211658A0C8B0D4E
:1056D3008C088D097A237B00121A878A0A8B0BAEFA
:1056E3000AAF0BEA4F70030259C212636AE508243A
:1056F300151259F3687003A3E0698E828F837004D7
:10570300740280027401F0E508240DF8E43509F908
:105713008882F583E0FAC3E49AFA95E0FB1259EF25
:105723002AFAA3E03BFB8E828F83A3A3A3A3125F7A
:10573300C88E828F83A3A3F0EE2420F582E43FF585
:1057430083E4F0EE2421F582E43FF583E4F0EEFAFE
:10575300EFFB1223BD850882850983125A0E700957
:105763008E828F83A374058006901B591259FCF017
:10577300EE2417F50AE43FF50B8E828F83125A0746
:10578300E9850A82850B83F0EE2416F8E43FF9E5F8
:1057930008240EFAE43509FB88828983124DDAE581
:1057A300082410FAE43509FB850A82850B83E0FCA3
:1057B30088828983E0F88A828B83E0C398C39CF84C
:1057C300125A48F0EEFCEFFDAA0CAB0D122303E9CD
:1057D300F50B8E828F83E064027006125F9F12596D
:1057E300CCE50B60030259B9750C00750D00901DD3
:1057F30084E064016005E06402703F1259DE6008D2
:10580300EE24211259E170328E828F83A3A3A31257
:10581300638C125A14EE24161259DA125A3DFAE422
:1058230039FB1240CCEA4B6011126BEE1210B61228
:105833005A22AA0C12708C1210CDEEFAEFFB12232F
:10584300C9E9F50B901D84E064016008E06402601F
:10585300030259ACE970030259ACE50C450D700322
:105863000259B98003850E0B1259DE600BEE242119
:105873001259E160030259B2850B0E850C08850DA0
:1058830009750A0078081210B6125A228E828F8385
:10589300A3A3A3A3127DA51210CDEE24201259DADF
:1058A300600D1259E77468124DF2EE24208015EE54
:1058B30024211259DA60151259E77403F0A3740115
:1058C300F0EE2421F582E43FF583E4F0EEFAEFFBFA
:1058D3001223C9E9F50B70907C137D0079007409DC
:1058E3001211551219DF741A1213D87401125A5374
:1058F30064687002A3E0704F8E828F8312556EE04E
:10590300640560030258687C0879FF8E828F83A345
:10591300A3A3A3E0242A125FE4121A69E970030225
:1059230058687C087D0079FF74011211551219DF44
:10593300740112115D7A007B0079AB1222E57419B0
:105943001213D874FC80151259E7E064037004A3A2
:10595300E06401700874191213D874FFF0E4F508B9
:10596300F50978081210BA740212115D7413121338
:10597300D8AA82AB831264C91210CD8521828522F5
:1059830083E0602B740912114D8808890978081285
:1059930010BA75081375090078081210BA7C007DD7
:1059A30000126D3C1210CD8006E50C450D6007AA70
:1059B3000CAB0D121A8DEEFAEFFB121A8D800375E4
:1059C3000B10A90B741C0279BCEE2406FAE43FFB0E
:1059D300121B7122EE240C125A5B22EE2420125A5F
:1059E3005B640122EE12551E3FF58322E508240E67
:1059F300F582E43509F583E022125A01A322E08EF1
:105A0300828F8322A3E0F912240B22E05403640162
:105A130022125A1822E0FAE82AF8E43400F9228E16
:105A2300828F83A3A3A3126390125A18EE24161233
:105A33005A5B125A3DFCE439FD22FAE82AF8E439AC
:105A4300F9E8240422125A4C22126903A3A3A322C5
:105A5300F0125A5822EE240FF582E43FF583E02238
:105A6300790102107F74F4120AF4EAFEEBFF8A82D2
:105A7300F583A3A3A3A3A3A3A3A3124D7D2424F57A
:105A830082E438F583125A0E702E8A828B83125663
:105A93009D7025125B36E06405701D125B36A3E032
:105AA300F874016860057406687007125550740233
:105AB30080051255507403F0EA240A126437126306
:105AC300A0E4F0EA2408F8E43F1234262431F582F6
:105AD300E43AF583E0C0E01270D7A3A3D0E0125BF1
:105AE30055CA242EF582E43AF583E0C0E01270D75C
:105AF300A3A3A3D0E012607BC8125B30381242C963
:105B03001270D7125B4A8A0A8B0BAC0AAD0B85085D
:105B130082850983125FE1121B71850882850983DF
:105B2300124F851223C9126432F002343C240BF560
